:020000040800F2
:10000000801300208D0100084F2600084D260008AF
:1000100000000000000000000000000000000000E0
:10002000000000000000000000000000532600084F
:1000300000000000000000005126000855260008BE
:100040009F0100089F0100089F0100089F01000810
:100050009F0100089F0100089F0100089F01000800
:10006000CD270008151000089F0100089F01000817
:100070009F010008D52600089F0100089F01000885
:100080009F010008112700089F0100089F01000838
:100090009F0100089F0100089F0100089F010008C0
:1000A0009F0100089F0100089F0100089F010008B0
:1000B0009F0100089F0100089F01000800F002F85E
:1000C00000F039F80CA030C8083824182D18A246C2
:1000D000671EAB4654465D46AC4201D100F02BF89A
:1000E0007E460F3E0FCCB6460126334200D0FB1AA7
:1000F000A246AB4633431847645C0000845C0000B2
:100100000023002400250026103A01D378C1FBD833
:10011000520700D330C100D50B6070471FB500985F
:10012000019900F0DCFD00F041FA1FBD10B5002080
:1001300000F03CFD10BD00F063FE1146FFF7EEFF3E
:1001400005F0F0FA00F09AFE03B4FFF7EFFF03BCEE
:1001500000F050FE70B505460C46164602E00FCC86
:100160000FC5103E102EFAD2082E02D303CC03C5C1
:10017000083E042E07D301CC01C5361F03E02178C9
:100180002970641C6D1C761EF9D270BD074880472B
:1001900007480047FEE7FEE7FEE7FEE7FEE7FEE76B
:1001A00004480549054A064B7047000079260008B7
:1001B000BD0000088007002080130020800B002075
:1001C000800B002010B5202A04DB0846203AD040DE
:1001D000002110BD0B462024D340D040A21A9140EC
:1001E0000843194610BDF8B5074615460E461020BF
:1001F00000F07AFC040009D06760A660E56000F0BA
:100200006FFC0168216004600020F8BD0120F8BD8A
:1002100030B5441C03E00178401C00290DD0810753
:10022000F9D10B4BDD0104C8D11A91432940FAD012
:10023000001B0A0603D0C01E30BD001B30BD0A04DF
:1002400001D0801E30BD0902FCD0401E30BD000030
:10025000010101010346F0B50B439B072DD1244D4D
:10026000EF01042A29D308C810C95E1B9E43121F40
:100270003E4017D0D8B2E1B2401A3106014310D146
:1002800098B2A1B2401A310401430AD118022102E6
:10029000000A090A401A3102014302D1180E210E48
:1002A000401AF0BDA342DCD018BA21BA884201D965
:1002B0000120F0BD0020C043F0BD002A01D1002084
:1002C000F0BD03780C78401C491C002B0DD0A342D4
:1002D0000BD1521E09D003780C78401C491C002B0E
:1002E00003D0A34201D1521EEBD1181BF0BD000078
:1002F00001010101F8B5042A2CD3830712D00B7831
:10030000491C0370401C521E83070BD00B78491CFC
:100310000370401C521E830704D00B78491C0370E5
:10032000401C521E8B079B0F05D0C91ADF002023EB
:10033000DE1B08C90AE0FFF70DFFF8BD1D4608C91E
:10034000FD401C46B4402C4310C0121F042AF5D2B5
:10035000F308C91A521EF0D40B78491C0370401CD4
:10036000521EEAD40B78491C0370401C012AE4D4C5
:1003700009780170F8BD431A70B593421BD28918F1
:10038000801804E0491E401E0B78521E037093072C
:10039000F8D106E01039103878C9103978C0103813
:1003A000103A102AF6D203E0091F001F0B68036001
:1003B000121FF9D570BDFFF7CDFE70BDF8B506462A
:1003C00014460843800707D0751AA54219D20819A8
:1003D000102D13D2311907E03046FFF7CCFFF8BDDE
:1003E000401E491E02780A70641EF9D2F8BD471BF0
:1003F0002A463946FFF77EFF641B3846A542F6D3EE
:10040000011B22463046FFF775FFF8BD01E004C02E
:10041000091F0429FBD28B0701D50280801CC90764
:1004200000D00270704700290BD0C30702D00270C1
:10043000401C491E022904D3830702D50280801C78
:10044000891EE3E70022EEE70022DFE7002203092E
:100450008B422CD3030A8B4211D300239C464EE0DF
:1004600003460B433CD4002243088B4231D303099B
:100470008B421CD3030A8B4201D394463FE0C3094D
:100480008B4201D3CB01C01A524183098B4201D365
:100490008B01C01A524143098B4201D34B01C01A50
:1004A000524103098B4201D30B01C01A5241C308C8
:1004B0008B4201D3CB00C01A524183088B4201D337
:1004C0008B00C01A524143088B4201D34B00C01A23
:1004D0005241411A00D201465241104670475DE038
:1004E000CA0F00D04942031000D3404253400022BB
:1004F0009C4603098B422DD3030A8B4212D3FC2264
:10050000890112BA030A8B420CD3890192118B42E2
:1005100008D3890192118B4204D389013AD09211F8
:1005200000E08909C3098B4201D3CB01C01A5241B3
:1005300083098B4201D38B01C01A524143098B427C
:1005400001D34B01C01A524103098B4201D30B0165
:10055000C01A5241C3088B4201D3CB00C01A52418A
:1005600083088B4201D38B00C01A5241D9D2430871
:100570008B4201D34B00C01A5241411A00D20146AE
:10058000634652415B10104601D34042002B00D518
:100590004942704763465B1000D3404201B50020DA
:1005A000C046C04602BD70477047704770B5064CE4
:1005B0007C44064D7D4403E0206800198047241DDB
:1005C000AC42F9D170BD0000C8570000E0570000F0
:1005D0000246C80FC00781434B0030B54B405B005B
:1005E0009B0D20D01923DB06C91801231B05994256
:1005F00020DB0324A40704251346AB400BD3002BB8
:1006000004D1EB0613409B00E34204D401246407A9
:10061000002312195941FF231B0599420BD2C9002F
:100620000143500F09E0CB0204D501430803024304
:1006300005D0054830BDFF21C905084330BD084637
:1006400007210905884330BD0000C07FF0B58B4C01
:100650000F09254689B0BD437BD01D092646AE4310
:10066000FAD00E465E402740F60F3E43254071D03B
:1006700024012142FBD0FF24AD19A4042D1B0395B6
:1006800001252D05DB02DB0AC9022B43C90A2943D8
:100690001E010901040F130F050121431701880BE7
:1006A000820391432D098C46A90B1E438A0395436F
:1006B000B30B9A0396433F09BA0B9403A7430296E0
:1006C0002E467E430497B6464E19D7190C4601961E
:1006D000544305977E43371B7646BF1B3601B6460B
:1006E000BE0B361900967646BC043719009C01D320
:1006F000641C00946400002F01D001263443029E44
:10070000049F754366467E430496760034196E0056
:1007100034190094029C019E1C196643751BAE4659
:10072000069465464519059C05956C4359437546E5
:100730000891691A0191049E01465143A41B04913A
:10074000611A009C0791E10605D06109012211435D
:1007500002E072E06EE06109089D00272C0A2D0678
:100760006918049D7C412A0A2D066918019D624181
:10077000AC0DAD026D185441079A910D92025519B6
:100780006141029A644658435443069B059A5A4372
:10079000121A131B9A0E9B015B187A41010B00057C
:1007A000C3185141220A200644195A419A4200D2E4
:1007B000491C01204002814203D315230226F6433F
:1007C00002E014230326F6432020C51AA940174649
:1007D000AF40DA400A4320460399D8400914731801
:1007E00019055118039A3843D2075140AC4009D03B
:1007F0000122944006D30022401C5141002C01D11B
:10080000400840001E4A934212D3012203989206E8
:10081000904207DB0520400709181A480143C0121F
:10082000414004E0032040070818C10FC907002019
:1008300009B0F0BD0020F107FAE705180C464C415D
:1008400011486D42A04115D394181A465A410E48DA
:10085000644290410ED301204A004005824209D3F0
:100860005A00824206D35940C90F084AC9070020DE
:100870001143DDE700200649DAE700000000FF072A
:10088000FE070000FFFFFF7F0000E0FF0000F07F99
:100890000000F87F0121C9050123411842001B0611
:1008A000D3185B0E0AD0C1100722D2068918400760
:1008B0005242D14201D5520089187047090208D529
:1008C0000146002A03D0C10FC90700207047104617
:1008D0007047420202D000200249704707210905F3
:1008E0000143F4E70000F87FF0B5FF252D04C609A9
:1008F000C209FF2704462E400137CB093E4348403A
:100900002A402B400746002A6BD0002B69D0AA4210
:1009100067D0AB4265D0002800DA32460125ED05EC
:1009200029432C4309022002090AD21A4B0C7F24C6
:10093000E31A434C000A7C44E35C7D24240412192E
:1009400014145B00A218884201D3521C00E040003E
:1009500049420C465C4324115C43DB016415E318F7
:10096000040A5C43C502200D0C4644436419250A61
:100970005D432303EC0C0D46654300030019EB189F
:100980004C42A34201D35B18401CD4052018002B15
:1009900007D05B00C91804D3401C002901D14008CE
:1009A00040003F2189048A4209D3002A08DC11064D
:1009B000090F04D0032149074018C00FC007F0BD3C
:1009C00001224100120689187F2252069142F6D276
:1009D00005214907C84201D59010F0BDFF20C00590
:1009E000F0BD002F00DA32461648AA4207D2AB42C9
:1009F00005D21902090E17D0F80FC007F0BDFF2568
:100A000063002D06AB42F9D84900A942F6D8AB42A3
:100A100001D1A942F2D0A94201D1002101E0610037
:100A20004908D0050843F0BD1102090EFBD0FF2094
:100A30000243D005F0BD0A460146104654E70000C7
:100A4000F25200000000C07F0102C21504D0012351
:100A5000DB071943002A0ADB9E239A1A02D40846B0
:100A6000D0407047FF2241001206914201D9002078
:100A70007047C017C04370471F22030C02D10F22DA
:100A800000041CD0030E01D10002083A030F01D16B
:100A90000001121F830F01D18000921E002801DB8C
:100AA0004000521ED20551180212511819229040CE
:100AB00004D3491C002801D1490849000846704761
:100AC000C10FC90700D04042012292071143D3E76A
:100AD00001218907D0E70000004870475407002033
:100AE000004870475807002070B5064600F0D6F859
:100AF000056830460B30C408E400B44201D8002039
:100B000070BD68682A46002818D00168A14211D338
:100B10000B46214608318B4208D3436801194B60CC
:100B200003681B1B0B605160046001E04168516069
:100B3000001D70BD024640680028E6D121462846C7
:100B400000F0B8F80028DCD170BD70B50446051F70
:100B500000F0A4F80068002C1AD0446801E0204698
:100B60006468002C01D0AC42F9D301680A18AA428B
:100B700004D12A6805468918016000E045602868AC
:100B80004119A14205D16168696021684018286057
:100B900070BD6C6070BD10B500F084F8006810BDC9
:100BA00010B5044600F07EF8046010BDF8B50646A6
:100BB000FFF796FF0090054615E0002E02D0E06892
:100BC000B0420FD1206828600098A168076860686B
:100BD00088472046FFF7B9FF00980068B84202D066
:100BE0000098E8E725462C68002CE6D1F8BD10B542
:100BF00000F0B0F800F0A7F810BD10B500F0C2F892
:100C000010BD000030B5C30D1906214A090E31D0C0
:100C1000FF292FD000283ADB0102500201430120B6
:100C20007D33C34000D24908012080071724091AE8
:100C30002406490882102343FF252D064C00211A63
:100C400004D4891A02D45400201800E02146520826
:100C50005B19F3D51A220446944007D382068A42D0
:100C600003D180218030884300E08030C009D9055D
:100C7000081830BDFF2904D04100FAD0C00FC007CA
:100C800030BD410201D0104630BD0028FCDAFAE741
:100C90000000C07F004870472007002000487047D0
:100CA0002807002000487047200700207047704741
:100CB0007047704738B504460A4600206946C0466A
:100CC000C046002805D002462046009900F0BCF836
:100CD000012038BD10B5012000F0FCF810BDF8B5BA
:100CE000C046C046054600200C461020C0460646B9
:100CF000A819A0420DD9324669460020C046C04618
:100D0000070001D100F0E6F80098A04200D00546A7
:100D1000C419FFF7C3FFF61D07460560F008C000C1
:100D20004619284600F008F8B44204D03146386825
:100D3000A21B00F089F8F8BD0021016041608060CD
:100D400070471020704710B5002801D000F052F80D
:100D500010BD000010B5002102A000F0A1F8012094
:100D600010BD00005349475056464E3A2050757208
:100D700065207669727475616C20666E2063616CA3
:100D80006C65640010B500F00EF80169002903D00D
:100D900000220261884701E08068804700F076F811
:100DA00010B500F073F870B500F04AF80468054615
:100DB000002C15D12020FFF797FE040012D0002050
:100DC00009492C6003C4094921602071A060E060DA
:100DD00007492061083C002901D000F081F8E0615A
:100DE000204670BD00F052F800000000A10D000880
:100DF0000000000001491820ABBEFEE726000200FB
:100E00007546FFF747FFAE46050069465346C008E2
:100E1000C000854618B020B5FFF7C2F960BC0027B6
:100E20004908B6460026C0C5C0C5C0C5C0C5C0C5B6
:100E3000C0C5C0C5C0C5403D49008D4670470000D3
:100E4000004870475C07002010B50346406801E089
:100E500003464068002801D08842F9D31868C318B7
:100E60008B4206D0CB1CD808C000001D411A521A74
:100E70000146081D0A60FFF768FE10BD10B5044664
:100E8000C046C0462046FFF75FF910BD10B50020F0
:100E900000F04EF8FFF74AF90120FFF7ABFF10BD55
:100EA00070B505460C460A2000E06D1C00F039F8CC
:100EB000002D06D028780028F7D102E0641C00F04D
:100EC00030F8002C02D020780028F7D10A2000F05A
:100ED00028F870BD10B500F031F8FFF734FF10BDF1
:100EE00010B58820FFF700FE002801D00021017016
:100EF00010BD802904D8002802D00178002901D033
:100F0000002070470121017008307047002803D08D
:100F100002460832914201D0002070470021017042
:100F2000704708B5694608700320ABBE08BD70471E
:100F300010B500F02BF8FFF706FF10BD10B5012823
:100F400005D0002103A0FFF7ABFF012010BD09A1D0
:100F5000F8E7000053494752544D454D3A204F752C
:100F600074206F662068656170206D656D6F7279A1
:100F7000000000003A2048656170206D656D6F7259
:100F80007920636F727275707465640010B500210A
:100F900002A0FFF785FF012010BD00005349474123
:100FA0004252543A2041626E6F726D616C207465DA
:100FB000726D696E6174696F6E00000070B58C1897
:100FC0000578401C6B075B0F01D10378401C2A1188
:100FD00006D10278401C03E00678401C0E70491CC4
:100FE0005B1EF9D12B0705D40023521E0DD40B70C4
:100FF000491CFAE70378401CCB1A921C03E01D78C9
:101000000D70491C5B1C521EF9D5A142D8D300209B
:1010100070BD000010B5094C2068800709D508484C
:1010200001F0F2F80749084803F086FA074800F093
:101030008EFA2068064800F0D5FA10BD0000024084
:10104000C80400204C020020480200207C0400203C
:101050009405002070B5044600F0C6FC0546104E0D
:101060000AE0601C08D0002C04D000F0BDFC401B3E
:10107000A04201D9032070BDF068C007F1D1F0682B
:10108000800601D52020F060F068C00602D4F06828
:10109000400703D503F03AFE012070BD002070BD6B
:1010A00000200240F8B50446006C0025012808D055
:1010B00001202064206881688907890F012908D1EF
:1010C00001E00220F8BD0168C90736D1C1680904F2
:1010D00033D4616CFF2201329143022211436164D7
:1010E000C1688E07C168B60F89088900C160206891
:1010F000816892071143816000F076FC07460EE09C
:1011000000F072FCC01B022809D9606C02218843E0
:10111000102108436064002020640120F8BD20688D
:1011200080680028ECDB2068C1683143C160606CD6
:1011300080088000401C606404E0606C202108434B
:1011400060640125002020642846F8BDF8B500251C
:1011500004460095006C01283CD0012323642068DC
:101160008268520773D43E4F4E683E4ABE42866A3A
:101170000F7851D0BB401E4386620123A06B1B0732
:1011800098421FD001281DD002281BD0032819D057
:10119000042817D0052815D0062813D0072811D009
:1011A00020688B6846697607760FB3420AD0436998
:1011B000DB08DB004361206843690E7A7607760F0F
:1011C000334343610868102806D0112804D0122840
:1011D00002D041E00220F8BD9368102809D0112800
:1011E0000AD001200006034393600868102806D047
:1011F00032E00120C005F6E701208005F3E71B4837
:1012000019490068FFF722F90A21484300E0401E0F
:1012100000900028FBD11FE0BB409E438662086817
:10122000102803D0112801D0122815D19168102858
:1012300006D0112808D001200006814391600BE000
:101240000120C005F9E702E001208005F5E7606CA8
:101250002021084360640125002020642846F8BD51
:10126000011000000027014040420F000400002050
:1012700070477047F8B500250446002803D0606C1D
:10128000002802D007E00120F8BD0020A0642064FF
:10129000204600F0A9F8606C1022C006002870DB20
:1012A0002068816849076CD4616C1301994302235B
:1012B0001943616481688907890F012905D1016893
:1012C000C9070FD1C16809040CD4C1681823994318
:1012D000A3681943C16020680169636889008908AF
:1012E000194301612068C1683D4B1940C160A06984
:1012F0008103E069C0030143206A43031943636B20
:10130000012B02D001231B0300E000231943E368F3
:1013100019432369022B09D000231943236B666A02
:101320005B0019430123012E02D00AE00423F4E7F5
:10133000002827D0606C202630436064A06C1843DE
:10134000A064A06A0646FF3EC23E02D0E66A304371
:1013500001432068C6680E43C6600126A06B3607AD
:10136000B04213D0012811D002280FD003280DD08D
:1013700004280BD0052809D0062807D0072805D057
:1013800010E028E0012000040143DAE72068466904
:10139000F608F600466120684669278F7F077F0FB1
:1013A0003E4346612068C0680E4E3040884207D1F7
:1013B0000020A064606C80088000401C606408E02D
:1013C000606C0221884310436064A06C1843A064E1
:1013D00001252846F8BD606C10436064F8E7000002
:1013E0001902FEFFE7FF3F8370B505460068194903
:1013F00086B088422BD11848826941150A43826120
:10140000806900260840059001200090032001908B
:10141000092069460296C00600F036FA0F48104CC3
:1014200041C48020266060604000A060C000E06091
:101430002020666120610A48083C00F01FF900285E
:1014400003D0682107A001F0D5F9EC63A56206B0CE
:1014500070BD00000024014000100240080002405E
:10146000940500202E2E2F5372632F73746D333228
:10147000663078785F68616C5F6D73702E63000012
:10148000F7B504460068174680680025400738D441
:10149000206C01280AD001262664E069012807D0C3
:1014A000204603F0EDFA050002D02BE00220FEBD3D
:1014B000606C15490840FF21013108436064002039
:1014C000A0642064E16B1148C862E16B1048486376
:1014D00021681C2008602068416810221143416087
:1014E0002068C1683143C16021683B46E06B4031F0
:1014F000019A00F0EDF820688168042211438160B0
:1015000000E002252846FEBDFEF1FFFF854B0008E6
:101510006B4B000870B50446006C012807D001250C
:101520002046256403F064FB002802D00CE0022072
:1015300070BD204603F0E6FA002805D1616CFF2259
:1015400001329143294361640021216470BD70B56B
:101550000446006C012807D001262046266403F0CB
:1015600047FB050002D024E0022070BD2068C1685E
:1015700049084900C160E06B00F01FF8050003D086
:10158000606C4021084360642068416810229143E8
:101590004160002D204602D003F0B4FA09E003F0C8
:1015A000B1FA050005D1606CFF2101318843304359
:1015B000606400202064284670BD01680A680E231C
:1015C0009A430A6001680A68520852000A600123BF
:1015D000426C19469140026C5160436200210162E5
:1015E00008467047F0B4016C0B6801680A6804256E
:1015F000446C2E46A6401E420DD056070BD50A68F5
:10160000920602D40A68AA430A60416C8D40016CBC
:101610004D60016B17E002263746A7401F400125A9
:10162000002F14D0970712D50A68920604D40A68CE
:101630000A239A430A604562416C8E40016C4E60F9
:1016400000210162C16A002916D0F0BC08470826B3
:10165000A6401E4210D012070ED50A680E239A43E8
:101660000A60426C29469140026C5160C563456234
:1016700000210162416BE6E7F0BC704770B50400E1
:1016800021D00220606220680168104AA3681140DE
:10169000626825691A43E3682B431A4363691A4356
:1016A000A3691A43E3691A430A430260204603F020
:1016B000DDFA0020E06220636063A063E063012143
:1016C0006162206270BD012070BD00000FC0FFFF8D
:1016D000F8B50446006A0025012809D001262662D3
:1016E000606A0027012805D0022527622846F8BD38
:1016F0000220F8BD02206062E763206807687F0867
:101700007F000760204603F09CFA206B00282068C9
:10171000016802D00E22114306E00A221143016043
:101720002068016804229143016020680168314308
:101730000160DBE7F8B5054623480F4681690126BD
:1017400001290BD0012181612868204C012807D094
:101750002046FFF77FFC002813D030E00220F8BDC0
:101760002046FFF777FC002829D103F01DFB204617
:10177000FFF770FC06461648016904229143016197
:101780001DE00020C04338606C6812E0204601F084
:10179000FBF90E48FFF75EFC06460D480169022280
:1017A00091430161002E01D03C6008E00120C0029D
:1017B0002418A8686968C0024018A042E6D8024808
:1017C000002181613046F8BD8802002050C300002E
:1017D000002002400348016980221143016100207A
:1017E0007047000000200240F0B51FB405461A48BB
:1017F0000024816916461F46012907D00121816115
:101800001648FFF727FC002803D021E0022005B08E
:10181000F0BD012D1AD0022D18D0042516E02201AA
:1018200030463946FEF7CEFC81B2019862001018AE
:1018300003F088FA0948FFF70DFC09490A695208C4
:1018400052000A61002803D1641CE4B2AC42E6D322
:10185000014900228A61DAE78802002050C30000B3
:101860000020024005480169090605D50449416088
:101870000449416000207047012070470020024069
:1018800023016745AB89EFCDF8B5002292E0012432
:101890009440A44623407DD04C68022C01D0122CE9
:1018A0000CD1D408A4002618356A5407E40E0F277B
:1018B000A740BD430F69A7402F4337620668550014
:1018C0000324AC400F79A643BF07BF0FAF40374397
:1018D00007604E68012E05D0022E03D0112E01D0D4
:1018E000122E0ED18668CF68A643AF40374387607B
:1018F00047686646B7430E79F606F60F96403E43B4
:101900004660C668A6438C68AC403443C4604C68EB
:10191000E4004ED52A4CA56901263543A561A4698A
:10192000950834400094274CAD002F19BD689407EA
:10193000240F0F26A640B5430926F606B04201D172
:10194000002614E0204EB04201D101260FE01F4EC8
:10195000B04201D102260AE01D4EB04201D1032659
:1019600005E01C4EB04201D1042600E00526A64049
:101970002E43BE60184D2C684E689C43F60300D57C
:101980001C432C606C684E689C43B60300D51C4316
:101990006C6000E00DE0AC684E689C43F60200D538
:1019A0001C43AC60EC684E689C43B60200D51C43F7
:1019B000EC60521C0B681C46D44000D067E7F8BDB1
:1019C00000100240000001400004004800080048E8
:1019D000000C00480010004800040140002A01D01B
:1019E000816170478162704701480068704700005C
:1019F0000000002002480168491C01607047000097
:101A00000000002010B50648016810221143016053
:101A1000022000F007F800F017F8002010BD0000C9
:101A20000020024010B5044600F01EF97D21C900D7
:101A3000FEF70CFD00F05AFB00222146501E00F07C
:101A400029F8002010BD000008B50C48816901226A
:101A50001143816180691040002200901146501F9F
:101A600000F018F800221146901E00F013F8022131
:101A70000022C81E00F00EF808BD00000010024051
:101A8000C106C90E01208840014908607047000066
:101A900000E100E010B503F065F910BD174A1168C8
:101AA000E023994303681943116015494B680122EB
:101AB000120493434B600B6893430B608B68934312
:101AC0008B60CB689343CB604368DB0302D50B6824
:101AD00013430B6043689B0302D54B6813434B6071
:101AE0000379DB0702D08B6813438B600079800792
:101AF00002D5C8681043C8607047000000700040FD
:101B0000000401400248016810221143016070473F
:101B100000700040F8B505464E480E460068C00704
:101B2000C00FB0420AD24B4801684908490031430E
:101B300001600068C007C00FB04270D12878464FDE
:101B4000800705D57868F0218843A9680843786044
:101B50002878C00753D06868012817D0022818D009
:101B6000032819D039688907002958DA7968890863
:101B7000890001437960FFF737FF04466868012850
:101B800013D002281DD0032827D034E039688903F8
:101B9000EAE739688901E7E7796BC903E4E7FFF70A
:101BA00023FF011B2D48814223D878680007800F4E
:101BB0000128F4D123E0FFF717FF011B27488142DA
:101BC00017D878680007800F0228F4D117E0FFF7D4
:101BD0000BFF011B214881420BD878680007800F5A
:101BE0000328F4D10BE0FFF7FFFE011B1B488142E5
:101BF00001D90320F8BD78680007800FF3D115489C
:101C00000168C907C90FB1420BD9016849084900E9
:101C1000314301600068C007C00FB04201D001200D
:101C2000F8BD2878400706D578680721090288435F
:101C3000E9680843786000F01DF87968084A0906E9
:101C4000090F515CC840074908600220FFF7EAFE0F
:101C50000020F8BD00200240001002408813000060
:101C6000285A00080400002001480068704700005E
:101C70000400002030B516A00FC889B06C460FC410
:101C800017A00FC80FC41A494B680C201A4602400F
:101C9000184807D0042A05D0174D082A04D00C2A6A
:101CA00000D1284609B030BD9A02120F6C46A45CE0
:101CB000C96A04AA0907090F515CDA03920F022AC4
:101CC00002D0032A00D12846FEF7C0FB6043E9E7B3
:101CD00002030405060708090A0B0C0D0E0F10106D
:101CE0000102030405060708090A0B0C0D0E0F106C
:101CF0000010024000127A00006CDC02FEB50446BF
:101D00000078EF4EEF4DC00747D068680007800F9E
:101D1000012818D068680007800F022804D168687D
:101D2000C003800F02280ED06068012812D0012164
:101D30008904002801D0052816D02868B0432860FF
:101D40002868884308E02868800326D56068002852
:101D500073D022E02868304328606068002810D0E3
:101D6000FFF742FE074608E0286808432860F1E7CD
:101D7000FFF73AFEC01B642870D828688003F7D5A7
:101D80000BE0FFF731FE074604E0FFF72DFEC01B16
:101D90006428F1D828688003F7D4207880073ED5DE
:101DA00068680007800F14D068680007800F022859
:101DB00004D16868C003800F01280AD0E0680028B9
:101DC00028681DD0012108432860FFF70DFE074653
:101DD0000BE0286880070BD5E06801282DD107E0CB
:101DE000FFF702FEC01B0228C6D828688007F7D577
:101DF0002868F82188432169C900084328600EE05B
:101E0000400840002860FFF7EFFD074604E0FFF7B9
:101E1000EBFDC01B0228AFD828688007F7D42078D4
:101E2000000724D5E0690028686A10D00121084322
:101E30006862FFF7D9FD074605E03FE1FFF7D4FDF3
:101E4000C01B022898D8686A8007F7D50FE04008C1
:101E500040006862FFF7C8FD074605E0C3E0FFF7F2
:101E6000C3FDC01B022887D8686A8007F7D4207892
:101E700004274007002861DA00200190E869C000CB
:101E800008D4E969B8060143E961E9690140012024
:101E9000009101908C480168C90511D40168821530
:101EA00011430160FFF7A0FD009005E0FFF79CFDE6
:101EB0000099401A642897D883480068C005F5D572
:101EC000A06801280AD0002801D0052811D0286A6E
:101ED000400840002862286AB84302E0286A0121CD
:101EE00008432862A068002812D0FFF77DFD00900B
:101EF0000AE0286A38432862F0E7FFF775FD009989
:101F0000411A724881426ED8286A8007F5D50DE0E3
:101F1000FFF76AFD009006E0FFF766FD0099411AA1
:101F20006A4881425FD8286A8007F5D40198002862
:101F300004D0E869012109078843E8612078C006D8
:101F400035D5606901280CD0401D686B24D038431A
:101F50006863686B400840006863FFF745FD07460B
:101F600022E0686B38436863686B0121084368634B
:101F7000FFF73AFD074604E0FFF736FDC01B0228D5
:101F800031D8686B8007F7D5686BF8218843A16961
:101F9000C900084368630AE0B8436863F4E7FFF7E1
:101FA00023FDC01B02281ED8686B8007F7D4207859
:101FB000800637D568680007800F032814D068684A
:101FC0000007800F022804D16868C003800F03282F
:101FD0000AD0206A0028686B16D030436863FFF788
:101FE00003FD06460CE062E0686BC0031AD5206A68
:101FF000012863D116E0FFF7F7FC801B022856D8B2
:10200000686BC003F7D50DE0B0436863FFF7ECFCE5
:10201000064604E0FFF7E8FC801B022847D8686BFF
:10202000C003F7D4606A002846D069680907890FA1
:10203000022943D001273F060228286805D0B8436B
:102040002860FFF7D1FC044633E0B8432860FFF76F
:10205000CBFC064604E0FFF7C7FC801B022826D80D
:1020600028688001F7D4E86A216B00090001084361
:10207000E862A16AE06A084369687B22D20391435F
:1020800008436860286838432860FFF7ADFC0446C1
:1020900004E0FFF7A9FC001B022808D8286880018B
:1020A000F7D509E0FFF7A0FC001B022801D90320A7
:1020B000FEBD28688001F5D40020FEBD0120FEBDD4
:1020C0000000010000100240007000408813000072
:1020D000042204490428086902D09043086170472B
:1020E0001043FBE700E000E070470000094910B52D
:1020F000401E884201D9012010BD074C60610321B8
:10210000081F02F02FFE0020A061072020610020A0
:1021100010BD0000FFFFFF0000E000E010B5FFF77A
:10212000E3FF10BD7047704730B5C26B012A1CD069
:1021300001230222C3630264026854687025AC4321
:102140005460026854680D682C43546002689468B7
:102150008025AC4394600268946849680C4394609D
:1021600003640021C163084630BD022030BD10B5B4
:10217000040003D0206C002802D006E0012010BD2E
:102180000020E063204600F00BF802202064211DAF
:10219000206800F0C5FA01202064002010BD000076
:1021A00008B500680F4A104990420FD18A69C014DF
:1021B00002438A61896900220140009101210D20BA
:1021C000FFF768FC0D20FFF75BFC08BD074A904253
:1021D000FBD1CA6910200243CA61C969014000915C
:1021E00008BD0000002C014000100240001000401B
:1021F0000168CA6801231A43CA600068016819436C
:1022000001600020704700000168CA68520852004F
:10221000CA600068016A064A114207D1016A921039
:10222000114203D10168490849000160002070474C
:102230001111000070B50446C06B012817D00126AB
:102240000220E6632064206882687725FF23AA4382
:102250001B029A4382600868502836D00EDC202882
:1022600056D006DC00284DD010283FD14DE002208A
:1022700070BD30284FD0402838D13BE060282CD0AA
:10228000702816D001221203801A0DD090422DD151
:10229000CB684A688968206800F08CFA20688168F9
:1022A0000122920311430EE020688168C908C90029
:1022B00009E0CB684A688968206800F07BFA2068EA
:1022C0008168A9432943816010E0CA684968206891
:1022D00002F0E6FC5021206806E0CA6849682068E0
:1022E00002F0EFFC6021206802F0D2FC266400209E
:1022F000E06370BDCA684968206802F0D1FC4021E3
:102300002068F1E700212068EEE710212068EBE764
:1023100020212068E8E730212068E5E7704770B5A4
:102320000446006801690025C9438907002915DBB7
:10233000C168C943890711D4E91E01610120E06128
:10234000206880698007204602D0FFF7E7FF04E09D
:1023500000F096F8204600F094F8E56120680169E5
:10236000C943490717D4C168C943490713D4042195
:10237000C94301610220E061206880698005800F07
:10238000204602D0FFF7CAFF04E000F079F82046AB
:1023900000F077F8E56120680169C943090716D4A0
:1023A000C168C943090712D40821C9430161042047
:1023B000E0612068C0698007204602D0FFF7AEFFC9
:1023C00004E000F05DF8204600F05BF8E56120686D
:1023D0000169C943C90617D4C168C943C90613D4E2
:1023E0001021C94301610820E0612068C0698005AF
:1023F000800F204602D0FFF791FF04E000F040F884
:10240000204600F03EF8E56120680169C943C9072C
:1024100008D1C168C943C90704D1891E016120469A
:1024200000F030F820680169C943090609D4C16881
:10243000C943090605D48021C94301612046FFF73D
:1024400071FE20680169C943490609D4C168C943BE
:10245000490605D44021C9430161204600F018F81F
:1024600020680169C943890609D4C168C94389063E
:1024700005D42021C94301612046FFF754FE70BDF9
:102480007047704710B500F0BDF901F0F5FB10BDC5
:1024900070477047704710B50168CA68D243D307C8
:1024A0000122002B00D18A600168CB68DB439B07C7
:1024B00006D402228A600321C163FFF7EBFF10BD3F
:1024C000C263FFF7E6FF10BD70B5040003D0E06BF8
:1024D000002802D003E0012070BD0020206402200B
:1024E000E063204600F040F820680125056061683F
:1024F000A068228A01436069520410430143A06925
:102500000143E0690143606A0143A06A0143206816
:10251000026811430160E068012804D12068016865
:102520002A0411430160616B206B0843A16B0843CF
:102530002168C0430861616B206B08432168886291
:102540002168A06B0862206B02F0CEFB2168086353
:1025500020684168890889004160216803208860FB
:10256000E563002070BD0000F0B500681E4987B02B
:10257000884237D11D484269012109060A43426158
:1025800040690F130840009705901220002403258E
:10259000019002946946049503941548FFF774F975
:1025A00068030226009002946946019604950394FC
:1025B0000F48FFF769F907200196400209260090AD
:1025C000F60602946946049503943046FFF75CF9D9
:1025D00012200190029469460097049503943046B6
:1025E000FFF752F907B0F0BD004002400010024072
:1025F0000004004810B5016C012921D001230222FA
:102600000364C26301684C681C434C60C16A0129C1
:1026100001684B6816D093434B60036803219960AF
:10262000016A1023002901680C680DD01C430C605E
:1026300001680B6813430B6000210164084610BD5C
:10264000022010BD1343E7E79C43F0E7FEE7704725
:102650007047704710B507480168002902D001682B
:10266000491E016000F036FCFFF7C4F9FFF756FD84
:1026700010BD0000D801002012480168012211435A
:1026800001604168104A1140416001680F4A1140E1
:1026900001600168012292049143016041683F2278
:1026A000120491434160C16A09090901C162016BC9
:1026B000074A11400163416B490849004163002109
:1026C00081607047001002400CB8FF08FFFFF6FE63
:1026D000ACCEFFFF10B50A4801F0B9FD0146142247
:1026E0000848FEF7CDFE002806D107480168090713
:1026F000FCD50448FEF70EFF0448FFF710FE10BD9E
:102700003C0400207C04002000240140C804002078
:1027100010B50248FFF703FE10BD00000C050020B5
:10272000F0B502681D4B0124A4071D4D984203D04B
:10273000A04201D0A84203D17026B2434E68324372
:10274000184E194F98420DD0A0420BD0A84209D084
:10275000164CA04206D0B04204D0B84202D0144C6D
:10276000A04204D103242402A243CC682243802443
:10277000A2434C69224302608A68C2620A6882628C
:10278000984206D0B04204D0B84202D0084A9042E3
:1027900001D10969016301214161F0BD002C0140B3
:1027A000000400400040014000440140002000407F
:1027B0000048014030B58468FF252D021B021343F9
:1027C000AC430B432343836030BD000010B5064883
:1027D000FFF761FE054881680322114381600449C7
:1027E0000120086010BD000050050020004002409C
:1027F000B401002004462146014802F0D9FCFAE762
:1028000009000020F8B5244C6079002801D10A2085
:102810006071211D2E206A461F4B107000E05B1C6A
:102820008B4202D01A788242F9D11B4D61796D1E1C
:102830001A4E28780A2902D005291DD023E016490E
:10284000091D8B4216D01946134802F0DAFA28788F
:102850002018C11A491C01D1012100E0002100F01B
:1028600027F828780022C000801981880068FFF7C7
:10287000B5F808E02018F1E7C000801902F0ACFAC2
:102880002878401C28706079401E607128780428E0
:1028900001D100202870F8BD09000020D4020020DA
:1028A000024801F061FE00F0C9F9F9E74802002092
:1028B00070B50C46054600F011F9287801462E390E
:1028C0004E2910D2084D002C07D080004019FF3847
:1028D0000138806C8047286804E080004019FF3888
:1028E0000138806C804770BD7400002010B5084826
:1028F00006490068FDF7AAFD7D21C9004843302143
:10290000FDF7A4FD03490860002010BD40420F0000
:10291000040000207C02002010B50E487D21C90073
:102920000068FDF793FD0C49401E884201D9012043
:102930000CE00A4948610A480722C3691B021B0AC6
:102940004C042343C361002088610A61002800D041
:10295000022010BD04000020FFFFFF0000E000E0A7
:1029600004ED00E0914201D3891A03E03C239A1A56
:102970005118491C89B2814201D3012070470020BF
:10298000704770B50E46054604240A212868FDF7F5
:1029900067FD303131550A212868FDF761FD641E5D
:1029A000E4B22860022CF0D82E20B0700A216868AA
:1029B000FDF756FD641EE4B2303131550A216868D6
:1029C000FDF74EFD0A216860FDF74AFD641EE0B286
:1029D00030313154304670BDF7B584B00126002443
:1029E00004980194029107682546204600900498B7
:1029F0008188009881422DD9384600F087FB19491B
:102A0000C8680068102801D0112807D1086901683A
:102A10000968022919D10121019185680020421E0F
:102A200010E00821695E002906D003DA002C03DCDF
:102A3000144604E0002C01DA002600E00124401CCA
:102A4000C0B20C3501998842EBD300980837401C7E
:102A5000C0B2CBE7002E03D00698029007B0F0BDBD
:102A60000298FBE70C07002000B514481821026902
:102A7000526811700269162152685170026926214C
:102A80005268917002691C215268D1700269142148
:102A90005268117102690A215268517102695268C3
:102AA000917102695268D1710269526811720069AC
:102AB00040684172002000F03DFD00BD0C07002081
:102AC00010B5044800F0D8F9034801F0FDF800F013
:102AD000FDFB10BDB8010020805A000810B5104859
:102AE00002F09EF90E48083002F09AF90C481030B6
:102AF00002F096F90A48183002F092F9084820309E
:102B000002F08EF90648283002F08AF90448303085
:102B100002F086F90248383002F082F910BD000058
:102B20001400002010B50449044A48689060044825
:102B30004A6001F0F4FC10BD6C0200200007002088
:102B40004802002070B505460E460124002001F021
:102B5000EDFEAB2812D0C00209490A4A411882187A
:102B6000891C08E01088A84204D1403AD08F3080F8
:102B7000002402E0121F8A42F4D8204670BD0000F3
:102B800000F00108FEF70108064A0021D16106495C
:102B90000A6902231A430A61486108694022104306
:102BA000086170478802002000200240024980002E
:102BB0004018406B80B270470040024070B5044638
:102BC000C0880021C207002A02D08006C00E02D0B1
:102BD000617321732CE0607B0125002803D0207BEA
:102BE00000280DD017E013480369022293430361C4
:102BF000114B1B88E38103691343036165732173E0
:102C000021467D200E31C00000F024FB00280DD0AD
:102C1000207B00280CD00F220A212046FFF7DCFE83
:102C20000146204600F070F8002070BD2573F2E7E1
:102C3000012070BD00E000E00C07002070B51A4CC8
:102C40000025A068002807D1207900F0CBF900F01A
:102C500017FA0120E560A060E068002808D0002293
:102C60002079114600F05EFA6068A560401C606043
:102C70006068042815D90C4865601030A56000F024
:102C800017FA0948103000F03DF80749642000F0B9
:102C9000E1FA002803D104481030FFF78FFF00202D
:102CA00070BD012070BD0000A8010020F8B50A4CDD
:102CB000074620690E460225A8432061384601F0E8
:102CC00059FE802803D13146384601F0BFFD216905
:102CD00029432161F8BD000000E000E070B5054621
:102CE00000240A206043401901F0A2F9641CA4B238
:102CF000072CF6D30248006802F0A9F870BD000066
:102D0000F801002070470000F3B5002083B00446AE
:102D1000019000900398FF21066804984840401CE9
:102D200080B20027029039E0304600F0EFF91E49EA
:102D3000C8680068102801D0112809D10869016805
:102D40000968022927D10121019184681748009060
:102D500000251DE00821615EA08800F08DF90102C8
:102D6000A088A27900021018029A5043049A4A439C
:102D70001018010AA171000CA080204600F070FC20
:102D8000012802D10099002088476D1CEDB20C3457
:102D900001988542DED308367F1CFFB203988088F5
:102DA000B842C1D805B0F0BD0C0700203535000889
:102DB00070B5134C206981680A68D30703D1006895
:102DC000006813281AD15008400008602069016883
:102DD0000D68E1680968102904D1C168E800001D88
:102DE0000858804720690121006889030268AA42C7
:102DF000426801D18A4300E00A43426070BD00008E
:102E00000C07002070B50D460021042429712D1DEA
:102E100001E0002C09D0641EE4B20A21FDF716FB84
:102E200030316D1E29700028F3D1284670BD000096
:102E30001CB501F0DFF800280A480FD001F06FFB45
:102E400009480A490068009101906946084801F064
:102E5000D5FF0749034801F06FFB1CBD01F05FFB84
:102E60001CBD00004802002068020020045D00082C
:102E70005C02002001207047F8B500270568044671
:102E80003E4687601EE0284600F040F9286810287A
:102E900015D10F4800690069006880470C48006937
:102EA00000688088400401D50120A06008480069BE
:102EB000C16800680068C000085A384387B2761CB1
:102EC000F6B20835A088B042DDD8E780F8BD000032
:102ED0000C0700201049114A0888114B401C08803B
:102EE0001088401C80B21080984214D98878002342
:102EF000401CC0B288703B2807D98B70C878401C32
:102F0000C0B2C8703B2800D9CB70138005488A78BE
:102F10000260C978416070470C07002080020020E1
:102F2000E7030000A802002030B50C68496894420D
:102F300004DB994202DBA21AC91A05E03C25AA1A51
:102F4000521CA218EB1A59183C235943891889B20C
:102F5000814201D3012030BD002030BD10B592B0B8
:102F60003020009001200890059010200024069049
:102F700009946846FEF7C2FE002805D014A4214635
:102F8000174802F015F9FAE707200D9003200E907C
:102F90000F94012110940DA8FEF7BCFD002805D068
:102FA0000BA421460E4802F003F9FAE7FEF75CFE97
:102FB0007D21C900FDF74AFAFFF798F80420FFF7D2
:102FC00087F802210022C81EFEF764FD12B010BD72
:102FD0002E2E2F5372632F6D61696E2E63000000D9
:102FE00009000020F0B5154C1821626841435118C2
:102FF0000CC92072124F8868B862C8683863002014
:10300000083915E01C880C268D6874432C5DE40695
:10301000A40F032C09D095683E6BAE433E63002C91
:1030200003D15468BD6AA543BD62401C0C329B1C91
:103030008C898442E6D80020F0BD00000C070020F7
:10304000004002400020704710B50446FFF746FEDE
:103050004421085B012809D00721204600F07CFFAD
:10306000002803D1B62102A0FFF7C4FB10BD000069
:103070004665727200000000401A80B2704700007E
:1030800010B5064881680322114381600448006836
:1030900000F098FF0348FFF7ADFA10BD0040024072
:1030A0007C02002050050020401A00B2704700004A
:1030B000F8B50027056804463E4687601EE02846AE
:1030C00000F024F82868102815D10F48006900691D
:1030D000406880470C48006900688088400401D53A
:1030E0000120A06008480069C16800680068C0004D
:1030F000085A384387B2761CF6B20835A088B04229
:10310000DDD8E780F8BD00000C070020044AD0603D
:103110000168102901D0112901D140681061704760
:103120000C070020F7B586B000210291474918220C
:10313000496850430D18686801902868002700907E
:103140007DE00198A96804880C2044430859C20610
:10315000920F032A6BD10122104308510098007886
:10316000FFF724FD064620460A30A9680246039070
:10317000085A04908E5236490A88B24205D9A86886
:10318000062201599143091D06E04888B042A8680B
:103190000AD20159062211430151A96800200834BE
:1031A00008530220029042E00019FFF763FE002856
:1031B00029D00798002807D0079A314604989047ED
:1031C0000646A96803980E52A968201D085A314680
:1031D000FFF76AFF0646FFF735FF8007410FA86833
:1031E000062302599A430A4302510898002806D040
:1031F000089930468847A9680834085317E0A8683A
:103200000834065313E0A968201D085A3146FFF719
:103210004BFF2146AA6808315052FFF713FF800781
:10322000410FA868062302599A430A4302510198A4
:10323000801C019000980C307F1CFFB20090A88980
:10324000B84200D97DE7029809B0F0BD0C07002014
:10325000C801002070B5134C22690225AA432261DF
:10326000114A0028128805D00B8893420B8806D893
:10327000D31A09E0206928432061022070BD00268E
:10328000F643F31A9B185B1C9BB2834205D30A805A
:10329000206928432061002070BD206928432061F7
:1032A000012070BD00E000E00C070020064900206E
:1032B000CA681268102A05D10869C16800680068E8
:1032C000C0000858704700000C07002004481E2169
:1032D0000173142242732030017042707047000065
:1032E00058030020FEE7000010B500F0BBF90248CB
:1032F0000068804710BD00006402002010B5194B23
:1033000019698C6820784007820F486892070AD5AF
:10331000427A0868002A02711869006801D01021F9
:103320001CE00D211AE00822A25E8478A2420ADB8A
:10333000C2790868002A02711869006801D00B215F
:103340000CE00A210AE04478A24208DC027A08680C
:10335000002A02711869006802D00321016010BDC3
:103360000221FBE70C07002010B5194B19698C6886
:1033700020784007820F486892070AD5427A086889
:10338000002A02711869006801D0122111E00D2194
:103390000FE00822A25EC478A2420BDC4478A2426D
:1033A0000BDD82790868002A02711869006802D072
:1033B0000921016010BD0621FBE7027A0868002A96
:1033C00002711869006801D00521F2E70221F0E7D7
:1033D0000C07002010B5194B19698C68207840073C
:1033E000820F486892070AD5427A0868002A02715B
:1033F0001869006801D0112111E00D210FE00822A9
:10340000A25EC478A2420BDC4478A2420BDD827932
:103410000868002A02711869006802D0082101605A
:1034200010BD0621FBE7027A0868002A02711869BC
:10343000006801D00421F2E70221F0E70C07002028
:1034400030B5174C022521698B6818784007820F28
:1034500092070868002A01DA056030BD0822496831
:103460009A5E8B789A420ADBC9790171206900293A
:10347000006802D00B21016030BD0A21FBE709780A
:103480008A42E9DB0179002904D0491E0906090EA8
:103490000171F1D1216906200968086030BD000082
:1034A0000C07002010B5224C21698B681878400762
:1034B000820F486892070AD5427A0868002A02718A
:1034C0002069006801D00F211CE00D211AE00822BC
:1034D0009A5E83789A420ADBC2790868002A0271F0
:1034E0002069006801D00B210CE00A210AE0037872
:1034F0009A420BDB82790868002A02712069006811
:1035000002D00721016010BD0621FBE703795B4271
:103510009A42F8DC09684079087121690028096835
:1035200002D00120086010BD002000F003F810BD9B
:103530000C07002030B5154A0025116901240968DF
:10354000A4030D60116909684B6823434B6011693E
:10355000182489680B6823430B600D4B0D4C998828
:10356000042905D0102905D008219980032102E003
:10357000022100E0042121801979081811690968E5
:10358000087110698068858030BD00000C0700203C
:10359000C80100208202002008B5174B1869816815
:1035A00009784907890F89070AD500680179002938
:1035B00004D0491E0906090E017111D10D2011E038
:1035C000FFF774FEA02188430090012809D002284B
:1035D0000CD004280CD008280CD00020FFF7AAFF3C
:1035E00008BD022019690968086008BD0620F9E7CE
:1035F0000A20F7E70C20F5E70C07002030B5174C40
:10360000022521698B6818784007820F92070868A5
:10361000002A01DA056030BD082249689A5E8B787D
:103620009A420CDB0179002904D0491E0906090ED3
:103630000171F0D121690A200968086030BD0B785A
:103640009A42E7DB8979017120690029006802D07C
:103650000721016030BD0621FBE700000C070020B8
:103660000020704770B5284D0D232A6990680178B5
:1036700049078C0FA4071168002C0BDA5068427AB6
:103680000A712869002A006802D00E21016070BD0D
:10369000036070BD1D4A0979127944890026914260
:1036A0000AD1214600F036F800282869806801D048
:1036B00084800DE0868070BD8188091989B281807F
:1036C0002869A142806803D2868028690068DFE704
:1036D000286901680879002804D0401E0006000E01
:1036E0000871E8D128690A4A806812788188D14037
:1036F00081802869806886712869806806812969C7
:1037000002200968086070BD0C070020C801002075
:10371000820200200120704730B5174C0C2521692A
:103720008B6818784007820F92070868002A05DB2B
:10373000082249689A5ECB789A4201DD056030BD67
:103740004B789A420CDD0179002904D0491E090604
:10375000090E0171F3D1216906200968086030BDA6
:10376000097A017120690029006802D005210160F1
:1037700030BD0221FBE700000C07002030B5174CDC
:103780000A2521698B6818784007820F920708681C
:10379000002A05DB082249689A5ECB789A4201DD4F
:1037A000056030BD4B789A420CDD0179002904D0C8
:1037B000491E0906090E0171F3D121690620096825
:1037C000086030BD097A017120690029006802D0C3
:1037D0000421016030BD0221FBE700000C0700203E
:1037E00010B51048022301698A6810784007840FD9
:1037F000A4070868002C01DA036010BD496808249A
:103800000979145F49428C42F6DC0179002904D021
:10381000491E0906090E0171EFD10020FFF78AFE4B
:1038200010BD00000C07002030B5104B06241969AC
:103830008A6810784007850FAD070868002D05DB02
:1038400049680825555F49788D4201DD046030BD27
:103850000179002904D0491E0906090E0171F6D12B
:10386000196902200968086030BD00000C070020BB
:1038700030B5134B0C2519698C6820784007820FEE
:1038800092070868002A05DB08224968A25ECC7806
:10389000A24201DD056030BD49788A4202DD062181
:1038A000016030BD0179002904D0491E0906090EC6
:1038B0000171F6D1196902200968086030BD000065
:1038C0000C07002030B5134B0A2519698C68207845
:1038D0004007820F92070868002A05DB0822496822
:1038E000A25ECC78A24201DD056030BD49788A42F3
:1038F00002DD0621016030BD0179002904D0491E96
:103900000906090E0171F6D11969022009680860DB
:1039100030BD00000C07002010B50C4801F079FA0A
:103920000A48083001F075FA0848103001F071FAC1
:103930000648183001F06DFA0448203001F069FAA9
:103940000248283001F065FA10BD00001400002084
:1039500010B5044801F05DFA0248083001F059FA48
:1039600010BD00001C00002010B50A4801F051FAFB
:103970000848083001F04DFA0648303001F049FAA5
:103980000448203001F045FA0248183001F041FAAD
:1039900010BD00001400002010B50A4801F039FAEB
:1039A0000848083001F035FA0648303001F031FAA5
:1039B0000448103001F02DFA0248183001F029FABD
:1039C00010BD00001400002010B5084801F021FAD5
:1039D0000648083001F01DFA0448203801F019FAB1
:1039E0000248183801F015FA10BD00003C00002014
:1039F00010B50A4801F00DFA0848283001F009FA1C
:103A00000648303001F005FA0448103001F001FAA0
:103A10000248183001F0FDF910BD0000140000202C
:103A200010B50C4801F0F5F90A48283001F0F1F919
:103A30000848203001F0EDF90648183001F0E9F9A6
:103A40000448103001F0E5F90248303001F0E1F9A6
:103A500010BD00001400002010B5064801F0D9F98F
:103A60000448083001F0D5F90248103001F0D1F9CE
:103A700010BD00001400002010B50E4801F0C9F977
:103A80000C48083001F0C5F90A48103001F0C1F9BE
:103A90000848183001F0BDF90648203001F0B9F9A6
:103AA0000448283001F0B5F90248303001F0B1F98E
:103AB00010BD00001400002010B50C4801F0A9F959
:103AC0000A48083001F0A5F90848103001F0A1F9C2
:103AD0000648183001F09DF90448283001F099F9A2
:103AE0000248303001F095F910BD000014000020AC
:103AF00010B5024801F08DF910BD00004C00002007
:103B00001CB500200190E02000906846FDF7C6FF3C
:103B1000FDF7F8FF1CBD0000F8B5524800240188ED
:103B2000651E514800882B0C504E00295CD0504F28
:103B3000C91918D04F4AD14211D100280DD079426D
:103B400088420CD1474800F059FE00285BD1FDF7B0
:103B500089FE00221346444913E0424C49E000F03C
:103B60003FFF80B24CE0002814D09842F7D13E4885
:103B700000F044FE002846D1FDF774FE00223949CA
:103B800013460120FDF730FE84B2FDF723FE002C22
:103B900062D137E03348C1886700F05B814200D1D1
:103BA00025B2AC420DD031490839FEF7CBFF0128D0
:103BB00007D02E49F05B0839098800F0DBFE0028A9
:103BC00021D1641CA4B2072CE4D3FDF74BFE0022E4
:103BD000134624490120FDF707FE84B2FDF7FAFDE4
:103BE000002C39D120483AE00028B8D098420BD1B7
:103BF0001D4C204600F018FE002803D120462EE080
:103C0000002800D10020F8BD1748C1886700F05B8C
:103C1000814200D125B2AC420DD014490839FEF7DB
:103C200091FF012807D01149F05B0839098800F09D
:103C3000A1FE0028E7D1641CA4B2072CE4D3FDF751
:103C400011FE0022134608490120FDF7CDFD84B284
:103C5000FDF7C0FD002C01D02046F8BD014800F062
:103C6000CDFDCDE700F0010800F80108E4010020D7
:103C70001211FFFFEFEEFFFF70B50F4D686801688E
:103C80000968884768600168496888470B4C0C4898
:103C900001F0EDF80B49002802D08878688070BDEB
:103CA000AA7889780F20FEF75DFE0028F7D06C60B7
:103CB000A068E06070BD00006C020020EC060020EF
:103CC0008C0300200C07002010B504494860FEF763
:103CD00023FE002801D1FEF709FE10BD0C070020CD
:103CE00010B50C4801F095F80A48083001F091F839
:103CF0000848203801F08DF80648183801F089F896
:103D00000448103801F085F80248103001F081F8BD
:103D100010BD00003400002010B5084801F079F80B
:103D20000648283001F075F80448203001F071F899
:103D30000248183001F06DF810BD0000140000209A
:103D400010B50A4801F065F80848203001F061F824
:103D50000648283001F05DF80448183001F059F8A1
:103D60000248303001F055F810BD0000140000206A
:103D700010B5064801F04DF80448083801F049F83C
:103D80000248103801F045F810BD00003C0000204A
:103D900010B50C4801F03DF80A48083001F039F838
:103DA0000848103001F035F80648183001F031F8B5
:103DB0000448203001F02DF80248283001F029F89D
:103DC00010BD00001400002010B50C4801F021F8CF
:103DD0000A48083001F01DF80848103001F019F8C1
:103DE0000648183001F015F80448203001F011F8A9
:103DF0000248303001F00DF810BD00001400002022
:103E000010B50A4801F005F80848083801F001F833
:103E10000648103800F0FDFF0448183800F0F9FF9C
:103E20000248083000F0F5FF10BD00003C00002003
:103E300010B5064800F0EDFF0448103800F0E9FF27
:103E40000248183800F0E5FF10BD000044000020D3
:103E500010B50A4800F0DDFF0848083000F0D9FF2F
:103E60000648103000F0D5FF0448183000F0D1FFAC
:103E70000248283000F0CDFF10BD00001C000020DB
:103E800010B5084800F0C5FF0648283000F0C1FF13
:103E90000448203000F0BDFF0248303000F0B9FF88
:103EA00010BD00001400002010B5084800F0B1FF5C
:103EB0000648083800F0ADFF0448083000F0A9FFBC
:103EC0000248183800F0A5FF10BD00003C0000209B
:103ED00010B5064800F09DFF0448103000F099FF2F
:103EE0000248103800F095FF10BD0000340000209B
:103EF00010B5084800F08DFF0648103800F089FF23
:103F00000448183800F085FF0248203800F081FF8F
:103F100010BD00004400002010B5044800F079FFF7
:103F20000248103800F075FF10BD0000440000206A
:103F300010B5084800F06DFF0648083800F069FF2A
:103F40000448103800F065FF0248083000F061FFB7
:103F500010BD00003C000020F3B50120C00281B07C
:103F60000F46814201D90020FEBD154CFDF77AFCB9
:103F700000251EE02068401C19D10A2001996843E1
:103F800046183288002321460120FDF72DFC002829
:103F900009D120883081F2880023A11C0120FDF77F
:103FA00023FC002802D0FDF715FCDCE7241D6D1C66
:103FB000EDB2BD42DED3FDF70DFC0120FEBD0000D9
:103FC00004F0010800E0401E0028FCD1704708B54D
:103FD000411D002201E00270401C8842FBD108BD57
:103FE00042888A4202D38088884201D904207047DF
:103FF0000020704770B50B460446FFF7F1FF00281C
:1040000001D0042070BDE0881946FEF74FFE050080
:1040100004D00020C0432081284670BD204600F017
:1040200007F80248006800F012FFF5E7F8010020E9
:1040300010B504462146C0880831FEF783FD0028EC
:1040400002D00020C043208110BD10B5029C018029
:1040500042808380C48010BD70B50A4D04460222A0
:104060000021A86800F010FF002806D102220121DB
:10407000A86800F009FF002801D0A06870BD2046A4
:1040800070BD00006C02002010B54168014801F0CD
:104090008FF810BD09000020704710B504468168F4
:1040A000143000F0FDF9A08110BD006870470000D9
:1040B000F8B504460020A0600546277C19E020687A
:1040C000A9004058FCF704FD616801F045FC064674
:1040D0003846FCF7FDFC31460090084601F0E4FB51
:1040E0000099FCF701FCA16801F098FB6D1CADB2D2
:1040F000A060AF42E3D801F069FBFCF7CBFB054AB7
:10410000054BFCF7A3FAFCF763FAA0602046FFF723
:10411000C4FFF8BDC976BE9F1A2FCD3F70B50446C7
:104120000069012809D0002502280FD0032803D1F7
:10413000A06901F039F8256170BD022001F06CF82A
:10414000002801D0A18A0180A06170BD2561A0690D
:10415000074903880748A26800F0CBF9A06901F07D
:1041600023F805480349C06800F0E6F970BD000077
:10417000F40100206C0400206C02002070B504469D
:10418000806800F0F3FF234DA08202220021A8687E
:1041900000F07AFE002809D02069002802D001280A
:1041A00018D101E0012011E002200FE002220121DC
:1041B000A86800F069FE00280CD02069002802D011
:1041C000012807D101E0E06870BD0320206120468E
:1041D000FFF7A4FF03220221A86800F055FE002883
:1041E00002D0206901280AD003221146A86800F0F5
:1041F0004BFE00280BD02069012804D007E0A069FD
:104200000188491C02E0A0690188491E01802046FE
:1042100070BD00006C02002010B50169012902D0B8
:104220000146143100E08169014800F0D0FF10BD63
:104230000900002070B51C46154600F089FE856017
:104240000149C460016070BDA05C0008704710B5F2
:104250004068FFF72AFF10BD10B50549054800F07A
:10426000B7FD034803490838C06800F065F910BD80
:10427000340200205402002010B50549054800F022
:10428000A7FD03480349001FC06800F055F910BDA1
:104290003002002054020020F8B50446406800F0C7
:1042A00067FF344D0A272988334E0A390C220B0048
:1042B00000F0C6FF05041920304E1800A189814284
:1042C00002D9218A814202D30B20288006E0E189AD
:1042D000814202D9618A814204D32A803088608376
:1042E000B088A083F8BDE189814202D9618A814208
:1042F00019D32A80E189814202D9618A81421ED381
:10430000A38B628BE08A1C49FEF70EFE0028E9D0E1
:104310000D20288030886083B088A0830E202880FC
:10432000FFF7AAFFF8BDA189814202D9218A814203
:1043300003D3A38B628BA08AE5E72F80F8BDA18908
:10434000814202D9218A8142F7D30B212980CAE711
:10435000A1898142C2D9218A8142BFD2A38B628BBB
:10436000E08A0549FEF7E0FD0028E7D02F80FFF73F
:1043700073FFF8BD2C020020A802002010B5406891
:1043800000F0F8FE10BD70B5054600240A20A968AB
:104390006043081800F0EAFE61004919641CE4B2A9
:1043A0008881062CF2D970BD10B5FFF775FF10BDDE
:1043B000F8B506462648B16030602C2000F02CFF8E
:1043C00004002ED0054623496960DC211420A98110
:1043D000E98128742C1820482862204868620C2043
:1043E00000F01AFF2060142000F012FF606014201B
:1043F00000F00EFFA0600520009009212369E2680B
:10440000206801F081F90020A082287C800000F063
:10441000FFFE1421DC22286004C0491E0029FBDCB9
:1044200000E00025002475600A20B1686043081888
:1044300000F09CFE61008919641CE4B28881062C9E
:10444000F2D907483146006800F0F9FC3046F8BD63
:10445000B85C000800A0EB44FC010020EC03002045
:10446000F801002070B506460C48306070680028DE
:1044700011D00546006800F093FE2C461434E8691C
:1044800000F08EFE606800F08BFE206800F08CFE6D
:10449000284600F089FE304670BD0000B85C000878
:1044A00070B50546AA8A806892008150A88A0026C5
:1044B0000521401CFBF7CAFFA982A96805CD052389
:1044C000083D01F0E1F86D680024A0002858FCF7D1
:1044D000BBFA8019641CA4B286B2052CF5D3052161
:1044E0003046FBF7B3FF70BD836881894268184688
:1044F0001047096882604160838170477047C068D7
:104500007047000008B58068FFF738FF69460880EB
:10451000014800F05CFE08BD0900002070470068FB
:104520000179002906D00368002289005A500179D8
:10453000491E01717047000010B500680279437987
:104540009A4204D92D2105A0FEF754F910BD521C42
:10455000D2B2036802719000195010BD7075736873
:104560005F6572726F72000010B50446006801F05A
:1045700050F90068002806D0206801F04AF9006868
:1045800001680968884710BD70B5054600680028B5
:1045900006D00446006800F003FE204600F004FE4A
:1045A000284670BD3EB519491948002412C0046060
:1045B0000346012104220833446016C34461846128
:1045C000C461FF228162C23244620262C162083861
:1045D000FCF750FE002805D00EA42146114800F03B
:1045E000E7FDFAE701200003019005200290009406
:1045F00069460748FCF7AAFD002805D005A4214616
:10460000084800F0D5FDFAE73EBD00000024014057
:104610007C0400202E2E2F5372632F6D61696E2E45
:10462000630000000900002010B513481149016023
:10463000002141600122C260816002610322416168
:10464000520382610162416240228162C261C162A1
:104650000A4A026341634121C9038163FDF734FFC4
:10466000002805D0064C0748214600F0A1FDFAE7D6
:1046700010BD000000400240500500200070C00046
:104680008C47000809000020F0B51D4887B042693A
:10469000012149040A43426142690A400592426984
:1046A00049000A434261406909260840F606059020
:1046B0000122FE213046FDF791F9134F01221149E5
:1046C0003846FDF78BF90022C0213846FDF786F900
:1046D000FE20002401250090029469460195039470
:1046E0003046FDF7D1F807480294C0300090694683
:1046F000019503943846FDF7C7F807B0F0BD0000F8
:1047000000100240070F00000004004810B51D48CB
:1047100086B01B49016000241B498460416001216F
:10472000C1604461090284610161FDF720FD002838
:1047300005D016A42146194800F03AFDFAE70120F9
:104740000003009069460F48FDF774FD002805D06E
:104750000EA42146114800F02BFDFAE7202004A901
:1047600011C108480839FDF7DFFC002805D007A46F
:1047700021460A4800F01CFDFAE706B010BD000013
:10478000002C0140C8040020C05D00002E2E2F53D5
:1047900072632F6D61696E2E6300000009000020B6
:1047A0001CB51348114901607D2100240901846072
:1047B000416001218461C160FDF7D9FC002805D06A
:1047C0000C4C0D48214600F0F3FCFAE72020009045
:1047D000694601940648FDF7A7FC002805D0054C62
:1047E0000548214600F0E4FCFAE71CBD001000403B
:1047F0000C0500208C470008090000203EB5044647
:10480000FDF730F801200290002106480194009144
:1048100041686846FCF78EFF84B2FCF7DBFF204658
:104820003EBD0000DC0100200122811CD202801864
:10483000054A05E00B88934201D000207047891C8F
:104840008142F7D101207047FFFF0000F3B500243B
:1048500081B00D46204600F069F82F4F2F490128FE
:1048600003D0002804D0AB20FEBD00970F4600E027
:104870000091FCF7F7FF2A4A002301200099FCF77A
:10488000B3FF0646FCF7A6FF002E01D0B0B2FEBD76
:104890002946019800F06EF80028F8D1214E6500F5
:1048A000705B0199884211D01E490839FEF74AF918
:1048B00001280BD01B49705B0839098800F05AF8B1
:1048C000050003D0FCF786FF2846FEBD641CA4B299
:1048D000072CE4D31448FEF701FA3846FFF78EFFA1
:1048E000040003D0FCF776FF2046FEBDFCF7BAFFBC
:1048F0000022134601200099FCF776FF0446FCF7DE
:1049000069FF002C03D0FCF765FFA0B2FEBDFCF7E9
:1049100061FF0020FEBD000000F0010800F8010862
:10492000EEEE0000E4010020A40300200E490A88F6
:104930000E49098800280DD0012813D10C48002900
:1049400002D0002A03D009E082420BD008E0814265
:1049500006D007E0002A05D0002901D0AB2070471F
:10496000012070470020704700F0010800F801089E
:10497000EEEE0000F8B507460E460120FFF7D6FF21
:10498000AB2810D01449C002441814494518FCF74C
:1049900069FF03E02068401C06D0241DAC42F9D317
:1049A000FCF718FF8020F8BD324600232146012085
:1049B000FCF71AFF050003D0FCF70CFFA8B2F8BD06
:1049C0003A460023A11C0120FCF70EFF0446FCF729
:1049D00001FFA0B2F8BD000000F00108FEF70108D9
:1049E00010B50C4C2046FFF709FF00280DD1FCF74D
:1049F00039FF0022134621460120FCF7F5FE04464C
:104A0000FCF7E8FE002C01D0204610BD0248FFF75D
:104A1000F5FE10BD00F0010800F8010810B50548CA
:104A2000012281880068FCF7D9FF0348FFF777FD72
:104A300010BD00003C0200204802002010B50548CF
:104A4000002281880068FCF7C9FF0348FFF767FD73
:104A500010BD00003C0200204802002010B50548AF
:104A60004068FFF725FB0448FFF759FD0348FDF7B1
:104A7000BFFB10BD3C04002048020020C8040020F9
:104A8000F8B5044600200090206881688907890FE6
:104A9000012905D10168C9072CD1C168090429D4AD
:104AA0008168154A102611400125002915D1816819
:104AB00029438160124811490068FBF7C7FC00E0F8
:104AC000401E00900028FBD1FCF78EFF07460CE04B
:104AD000FCF78AFFC01B022807D9606C3043606472
:104AE000A06C2843A0640120F8BD20680068C04382
:104AF000C007EDD10020F8BD1700008040420F0034
:104B000004000020F8B50446006881688907890F11
:104B1000012928D10168C90702D1C168090422D539
:104B20008168052211401025012601290FD18168D5
:104B3000022211438160216803200860FCF754FFC2
:104B400007460CE0FCF750FFC01B022807D9606C39
:104B500028436064A06C3043A0640120F8BD206845
:104B60008068C007EED10020F8BD10B5806A416CA6
:104B7000402211434164816C042211438164FCF79B
:104B800078FB10BD10B50146806A426C50231A4272
:104B90000AD1416C01225202114341640168CA6882
:104BA0001205920F05D020E0C06B426B084690477B
:104BB00010BD026A002A18D10A68120715D58A6842
:104BC00001235207002A09DB4A680C24A2434A60E9
:104BD000416C1A0291431943416406E0416C202262
:104BE00011434164816C19438164FCF741FB10BDA2
:104BF00070B5044600688168490720D58168102592
:104C00004907002905DA8168890702D481682943A8
:104C10008160FCF7E9FE06460DE0FCF7E5FE801B2F
:104C2000022808D9606C28436064A06C0121084305
:104C3000A064084670BD206880684007EDD400205D
:104C400070BD30B5456C0124AC40056C6C600468E7
:104C500063604368102B036803D099600068C260EA
:104C600030BD9A600068C16030BD000010B50446D8
:104C70000068054940181421FBF7E8FB80006064D8
:104C80000248206410BD0000F8FFFDBF0000024094
:104C9000826870239A430A4307210A43826070475F
:104CA00030B5036A046A6408640004628469F0250C
:104CB000AC43120122430A24A3430B4382610362E3
:104CC00030BD30B5036A1024A34303628369046ACC
:104CD0000F252D031203AB431A43A0239C43090164
:104CE00021438261016230BD70B5034600200F246C
:104CF000014601258E002246B2401A4202D02A46C1
:104D00008A401043491C0829F4D370BD10B50B4AE2
:104D10000020D168CB060A4904D5C869022318438C
:104D2000C8611020D3685B0705D5CB6901242343F4
:104D3000CB6104210843D06010BD00000020024078
:104D40008802002010B5054B0022DA61044A13697D
:104D5000012423431361018010BD0000880200205C
:104D6000002002408307FF22DB0E9A408907090ECC
:104D7000994000280BDA0007000F0838830808481C
:104D80009B001818C36993430B43C36170478308A2
:104D900004489B001818036893430B430360704753
:104DA00000ED00E000E400E006490020C86106488C
:104DB000016904221143016101694022114301612B
:104DC0007047000088020020002002404068004731
:104DD000096841607047704710B5818800680122FA
:104DE000FCF7FCFD10BD10B5016004468280FFF7A2
:104DF000F3FF204610BD4068004770474968416096
:104E00007047001D02E04A780A70491C8142FAD9B5
:104E1000704710B5818800680022FCF7DFFD10BDE7
:104E200010B5818800680122FCF7D8FD10BD10B5CF
:104E3000016004468280FFF7F3FF204610BD03792E
:104E400002689B00D1500179491C0171704770B50F
:104E50000546002407E02868A10040580168096859
:104E60008847641CE4B22879A042F4D870BD0021C0
:104E70008A008258002A01D001207047491C89B25B
:104E80000529F5D300207047F8B504460026C80070
:104E90002E4F8D003346002A08D021461631012AB4
:104EA00009D0022A1AD0032A4BD127E038580A2801
:104EB00047D063510CE038580A2804D00B2802D0A0
:104EC000022807D03DE06420FEF7C4F9002838D15D
:104ED000012636E06059012832D032E038580A28DD
:104EE00004D00B2802D0022804D02AE0022060510E
:104EF000002626E060590228DBD022E038580A2834
:104F000004D00B2802D0022813D01AE060590128DF
:104F1000D9D04B20C000FEF79DF9002805D160597B
:104F2000002802D0012060510BE060590028DDD03C
:104F300007E06059012803D06059022803D000E03F
:104F400063513046F8BD0126FAE700003003002027
:104F5000014A026041607047185D000870B5044660
:104F6000806800F003F9214DA08202220021A86888
:104F7000FFF78AFF002809D02069002802D0012805
:104F800031D101E0012011E002200FE002220121D5
:104F9000A868FFF779FF00280CD02069002802D00C
:104FA000012820D101E0E06870BD03202061204687
:104FB000FFF7B4F82069012815D103220221A8685F
:104FC000FFF762FF002803D0A0690188491C09E0AF
:104FD00003221146A868FFF757FF002803D0A069F5
:104FE0000188491E0180204670BD00006C0200202F
:104FF00030B50446006989B0012808D0A06800F0E7
:10500000B5F8A0823C21FBF721FA206209E0A569EE
:105010003C212888FBF71AFA206228883C21FBF7FC
:1050200015FAE1612146202228316846FBF792F803
:105030001C340ECC024800F0D9F809B030BD000095
:105040000900002010B5FFF7F5F80149016010BD17
:10505000305D00087047000070B51E4D0446022206
:105060001146A868FFF710FF00280AD0A168E06881
:10507000884204D1207C8000001F081810E0001F27
:105080000EE002220321A868FFF7FEFE00280CD0E4
:10509000217CA0688900091F4218E1688A4201D179
:1050A000E06015E0091DE16012E002220021A8681D
:1050B000FFF7EAFE002802D0E068006870BD022217
:1050C0000121A868FFF7E0FE002801D0A068E7E70B
:1050D000204670BD6C02002010B50446C068012255
:1050E000006808A14068FBF7B5F80028E068006890
:1050F00004D04168044800F05BF810BD01684968BD
:10510000884710BD00000000090000200FB470B5F2
:10511000FFF71EFF04460E4820606846007E20749C
:1051200007AD800000F074F8A060E060002005E0AA
:10513000830002CDA268401CD150C0B2217C8142C4
:10514000F6D8E068A060204670BC08BC04B01847E0
:10515000485D000810B5044603482060A06800F0D0
:105160001FF8204610BD0000485D00080089704708
:105170008089704770B5084D084E0446A97832788A
:105180000320FDF7EFFB002804D0A089E081A97877
:10519000317070BDE08970BD0C0700202002002036
:1051A00010B500F001F810BD10B5FBF7CEFC10BD36
:1051B00070B50C460546FEF70AFF2046FBF728F8B7
:1051C000024621462846FBF7F9F8284670BD7CB513
:1051D0000C460546FEF7FBFE20886946FDF712FEE9
:1051E00001462846FFF7E4FF28467CBD0FB41CB5F6
:1051F0000446FEF7ECFE694605A8FDF7C2FB014632
:105200002046FFF7D5FF20461CBC08BC04B0184759
:1052100010B500F001F810BD10B5040008D101244C
:1052200006E0FBF759FC0068002800D103488047DE
:105230002046FBF759FC0028F3D010BDFB0B0008FB
:1052400030B47446641E2578641CAB4200D21D46FF
:10525000635D5B00E31830BC184710B50020FBF716
:10526000C6FC10BD70B536480A2141710521817117
:105270000924E406102221460B30FFF7D8FD314DFA
:105280002F480122920229461330FFF7D0FD2C4807
:10529000802221461B30FFF7CAFD294808222146FB
:1052A0002330FFF7C4FD2648022221462B30FFF7AA
:1052B000BEFD2348402221463330FFF7B8FD204889
:1052C000042229463B30FFF7B2FD1D48202221462B
:1052D0004330FFF7ACFD1A48022229464B30FFF756
:1052E00082FD17480122D20229465330FFF77BFD89
:1052F0001348012229465B30FFF775FD1048012253
:10530000520229466330FFF76EFD0D4A0E49521EC8
:10531000506E926E05C10A4A521ED06D126E4A60DE
:1053200008600748401E0246836D406DCB60886070
:1053300040320548D1681269C261816170BD0000C8
:105340000900002000040048D402002038B50820DD
:10535000FFF762FF0025002806D004462820FFF74B
:1053600057FF2060257100E000242548E6230460F3
:1053700024480090F922EB212348FEF766FE2148DD
:10538000FF22401C00902048FA230532F5210A3004
:10539000FEF75BFE1B48C923801C00901A48D722E9
:1053A000FA211430FEF751FE1648B923C01C0090B4
:1053B0001548C822C3211E30FEF747FE1148E122DE
:1053C000001D009010481E2392000A212830FEF78D
:1053D0003CFE0C484B22401D00900B480123D2009C
:1053E00014213230FEF731FE07480121054A81873A
:1053F000891E921DC1873C308580C28038BD000067
:10540000F801002050550000A403002070B51C498D
:1054100019480AC91B4C0460184AC3604260816085
:10542000194A1A49FAF7DFFE1A49194809681A4D4C
:1054300005604160144A1949FAF7D5FE1448184925
:105440000830002412C0104A16490838FAF7CBFE7B
:1054500009481549103012C0046084800A4A134973
:105460000838FAF7C0FE0A48074A103005600B49B1
:105470004460FAF7B8FE70BD5C0400203C040020D4
:10548000240200208C5C000800000008115800086D
:105490004C02002044020020045D0008FB4D00087F
:1054A000F05C0008D74D0008C45C0008FD4400080B
:1054B00010B507490748FEF77BFF074A0749FAF787
:1054C00092FE07480749FF2201320160828010BD29
:1054D000A40300203C0400200000000865440008EC
:1054E0003C0200200004004870B50B4D0820FFF777
:1054F00093FE002807D00A21044641712820FFF7B7
:1055000087FE206000E000242846044A04492C60FD
:10551000FAF769FE70BD0000480200200000000894
:105520008945000810B50420FFF776FE0149486060
:1055300010BD0000DC01002030B587B03D4B3E4A75
:105540003EA13F48FEF776FE3E4A3F49FAF74BFE42
:10555000384B394A18460A323CA1F438FEF76AFE45
:10556000384A3949FAF73FFE324B334A184614326B
:1055700037A1D838FEF75EFE324A3349FAF733FED8
:105580002C4B2D4A18461E3232A1BC38FEF752FE73
:105590002C4A2D49FAF727FE264B274A184628326F
:1055A0002DA1A038FFF74EFD264A2C49FAF71BFE25
:1055B000204B214A1846323229A15838FFF742FDC4
:1055C000204A2649FAF70FFE1A48264C1038194D82
:1055D0002549FFF7BDFCC560244984600160194A74
:1055E0002349FAF700FE2B46583B1A46483A114623
:1055F0001C3908461C3802AC0FC4383938380191C0
:105600000090483307221BA12846FFF77FFD0D4A73
:105610001949FAF7E8FD2846143018A12C46FFF77F
:1056200097FC174984600160064A1649FAF7DBFDCA
:1056300007B030BDEC060020A40300206331000059
:10564000DC050020000000084D4200086332000025
:1056500063330000633400006335000055500008D8
:10566000633600003C040020585D0008D85C000848
:105670001D450008000000005551000845727200E9
:10568000745C000899400008FFB585B0059844682F
:10569000806802900598008803908000001F201801
:1056A00000900193184621E006982746016800986B
:1056B00001600698029E001D06900098039D001D43
:1056C00000900020049002CE01CF00F0EDF8049984
:1056D00000F0A4F804906D1EF5D1079908600798B2
:1056E000001D07900198401E241D01900028DBD169
:1056F000059841680398401E02E004CC401E04C196
:105700000028FAD109B0F0BD70B504460498218094
:10571000081881001D461846091FA260FAF794FE7A
:10572000656070BD08B5FCF76DF9FDF717FCFEF775
:10573000ABFF2148416901221143416140690121C8
:105740001040009000220920FCF7A4F90920FCF782
:1057500097F9FEF769FFFFF723F8FEF723FFFEF73F
:10576000D5FF002201211120FCF794F91120FCF74C
:1057700087F9002201210820FCF78CF90820FCF7AA
:105780007FF90E48FBF78EFCFDF79AF90C490D489E
:10579000FEF7D2FEFEF7C0F90B48FDF755FC0748AF
:1057A0009030FCF725FD05484C30FCF721FDFEF755
:1057B000A7F9FDF775F80000001002407C040020F6
:1057C0005C04002048020020A403002070B50546B8
:1057D000FBF718FA41000446FF204908C005411AAA
:1057E000C90F07D069004908401AC00F02D1012033
:1057F000FBF7D6F9204670BDC16842684B10D2183D
:10580000CB07816802D0106840180168104608472D
:1058100070470168007980000818704770B501254D
:105820000400ED074C4020D4441A01D2001B091992
:10583000C60D4B00F2B2FF2A29D01B0E2CD000025D
:105840000C02D31A2C43DC402843051910D2280A35
:1058500002D3401C6D0611D0761EF6058019FF2A72
:1058600000DA70BDC00DC00570BD694000F07AF867
:1058700001200543C541521C761CE8E764089C40A2
:10588000C90161408900E7D10124A043E4E71B0E70
:10589000440200D0034870BD002AFCD1C00FC007ED
:1058A00070BD00BF0000C07F70B5420064414B0076
:1058B0005C41120E39D01B0E38D0FF2A3CD0FF2B92
:1058C0003AD040024902400A490A060045184E43B0
:1058D000000A090AD2184843ED017F3A0104731AFD
:1058E0004019190C4318990F04D001215B0849078E
:1058F0005B1A521CD80904D3401CF50301D19D0644
:1059000007D0FF2A08D2D50506D0E4072043401966
:1059100070BD0125A843F4E7002A01DCE00770BD53
:105920002402FF202043C00570BD1B0EFF2A03D0B8
:10593000FF2B01D0E00770BDFF2645003606B542BB
:1059400006D84D00B54203D8D218FF2A00D0E7E7A9
:10595000004870BD0000C07F70B501250400ED0750
:105960004C4022D4441A02D26C40001B0919C60DC7
:105970004B00F2B2FF2A4BD01B0E50D000020C029B
:10598000D31A2C43DC40A843051B05D5AD0019D321
:105990006D08761E521E37D0F605280A01D28019EE
:1059A00070BD70416D0603D070BD6940FFF73CFFCC
:1059B0009C4009026140490001D0401E70BD012495
:1059C000A04370BD6D081DD001202B0C01D12D040A
:1059D00010302B0E01D12D0208302B0F01D12D01DB
:1059E000001DAB0F01D1AD00801CEB0F01D16D008C
:1059F000401C6D00361A121A680AF5054019012A72
:105A000002DB70BD002070BDC036300AC00770BD1B
:105A10001B0E440201D1FF2B00D1024870BD002AA9
:105A2000F0D070BD0000C07F00000000000000004A
:105A300001020304060708090500000000004000F9
:105A400020000000030000000040000008000000EB
:105A5000050000000000800020000000030000009E
:105A600000200000080000000300000000100000FB
:105A70000800000000000100020003000400000014
:105A8000385A0008745A0008F4020020010000008F
:105A90000000400020000000445A0008765A000828
:105AA000F402002001000000004000000800000097
:105AB000505A0008785A0008F40200200100000043
:105AC00000008000200000005C5A00087A5A00089C
:105AD000F402002001000000002000000800000087
